A1                                        408                    20260128
F15088823664410-----B16SJ01M       202512SJ 2026012800000000000399006000226170300456                                                                           0
F15055936364409-----B12SJ31M       202601SJ 2026012800000000000299006000193283100478                                                                           0
F15047561364411-----B03JC07M       202512JC 2026012800000000000499006000184908100457                                                                           0
F15039779764408-----B09SJ04M       202512SJ 2026012800000000000299006000177126500400                                                                           0
F15039546264408-----B09SJ04M       202512SJ 2026012800000000000299006000176893000406                                                                           0
F15017675964409-----B06SJ14M       202506SJ 2026012800000000000238506000156320700484                                                                           0
F15017599164408-----B01JC09M       202601JC 2026012800000000000299006000156243900492                                                                           0
F09367197164410-----B14JC04Z       202512JC 2026012800000000000399006000130435500425                                                                           0
F09365306964408-----B14SJ23M       202512SJ 2026012800000000000299006000130248400424                                                                           0
F09365306964408-----B14SJ23M       202511SJ 2026012800000000000299006000130248400424                                                                           0
F09222643464409-----B08JC08M       202601JC 2026012800000000000399006000120612100453                                                                           0
F09000030764409-----B13JC06M       202508JC 2026012800000000000399006000107888700415                                                                           0
F08965068964410-----B10SJ16M       202509SJ 2026012800000000000399006000106000000480                                                                           0
F08965068964410-----B10SJ16M       202510SJ 2026012800000000000399006000106000000480                                                                           0
F08965068964410-----B10SJ16M       202511SJ 2026012800000000000399006000106000000480                                                                           0
F03340413564408-----B02SJ03M       202601SJ 2026012800000000000299006000005842600403                                                                           0
F03343227964409-----B02SJ13M       202511SJ 2026012800000000000399006000006109900466                                                                           0
F03431503964408-----B04JC04M       202507JC 2026012800000000000199906000011769700474                                                                           0
F03431503964408-----B04JC04M       202508JC 2026012800000000000022106000011769700474                                                                           0
F03431503964408-----B04JC04M       202601JC 2026012800000000000299006000011769700474                                                                           0
F03509624164411-----B06SJ19M       202512SJ 2026012800000000000499006000019095200402                                                                           0
F03537454364410-----B07SJ09M       202601SJ 2026012800000000000399006000021696200479                                                                           0
F03539824864409-----B07SJ20M       202601SJ 2026012800000000000399006000021924200491                                                                           0
F08965068964410-----B10SJ16M       202512SJ 2026012800000000000399006000106000000480                                                                           0
F08345306764409-----B03TA01M       202601TA 2026021000000000000399001000092239200401                                                                           0
F07927243664409-----B04PI05M       202512PI 2026012800000000000399006000084308700489                                                                           0
F07691476364408-----B08SJ14M       202601SJ 2026012800000000000299006000079593200422                                                                           0
F03733506564408-----B18SJ13M       202512SJ 2026012800000000000299006000040129000447                                                                           0
F07405951364408-----B06SJ08M       202601SJ 2026012700000000000299006000073842600400                                                                           0
F07589913264409-----B06SJ02M       202601SJ 2026012800000000000399006000077390400427                                                                           0
B0334112396440801000000000002990---------SJ 20260201                 000005908600463                          CICERA ANA FELISMINA DE SOUZA                  002
B0334103566440801000000000002990---------SJ 20260201                 000005900500413                          ONDINA LEME MICHELET                           002
B0334119486440801000000000002990---------SJ 20260201                 000005915200424                          ELIZABETE DOS SANTOS SILVA                     002
B0334335856440801000000000002990---------SJ                          000006122900430                                                                         053
B0342680066440801000000000002990---------SJ 20260201                 000011318400400                          CLEYTON JOSE DA SILVA                          002
B0334041356440801000000000002990---------SJ 20260201                 000005842600403                          MILTON JESUINO SILVA                           002
B0332063096440801000000000002990---------JC 20260201                 000003987800436                          ESCALINA MACHADO DOS SANTOS                    002
B0331555426440801000000000002990---------SJ 20260201                 000003506600430                          ANA MOREIRA BERNARDES                          002
B0331545976440801000000000002990---------SJ 20260201                 000003497200449                          BENTO DE SOUZA RAMOS                           002
B0331530436440801000000000002990---------SJ 20260201                 000003482000480                          DALVA MARIA MACHADO RIGOTTI                    002
B0331408636440801000000000002990---------SJ                          000003365400487                                                                         053
B0342701676440801000000000002990---------SJ 20260201                 000011339100459                          ALBERTINA DE LIMA                              002
B0342709496440801000000000002990---------SJ 20260201                 000011346800410                          JEANE APARECIDA VERGUEIRO DE LIMA              002
B0342719616440801000000000002990---------SJ 20260201                 000011357000446                          MARIA DA CONCEICAO RODRIGUES                   002
B0342727216440801000000000002990---------SJ 20260201                 000011364600411                          CARLESSON DE OLIVEIRA                          002
B0343150396440801000000000002990---------JC 20260201                 000011769700474                          AGUEDA MARIA RAMOS DA SILVA                    002
B0345795676440801000000000002990---------JC 20260201                 000014271800423                          BENI DOS SANTOS                                002
B0347739166440801000000000002990---------SJ 20260201                 000016038300439                          JOSE PEDRO DA SILVA                            002
B0351006216440801000000000002990---------SJ                          000019138100485                                                                         053
B0351505216440801000000000003990---------JC 20260201                 000019614000439                          TERESINHA PEREIRA DIAS                         002
B0354504956440801000000000002990---------JC                          000022427900403                                                                         053
B0354505846440801000000000002990---------JC                          000022428800402                                                                         053
B0359254516440801000000000002990---------SJ 20260201                 000026903900476                          MARLENE DA CONCEICAO SILVA                     002
B0365035096440801000000000002990---------SJ 20260201                 000032307100416                          CAUA WILLIAN DE SOUZA BARBOSA                  002
B0365035176440801000000000002990---------SJ 20260201                 000032307200401                          MARIA APARECIDA GERMANO DA COSTA               002
B0365044166440801000000000002990---------SJ 20260201                 000032315900454                          BENEDITO LAURINDO                              002
B0365061256440801000000000002990---------SJ 20260201                 000032332300402                          OSWALDO DE SOUZA PAMPLONA                      002
B0365103356440801000000000002990---------SJ 20260201                 000032373800434                          ROSALINA FILETE DA SILVA                       002
B0365125916440801000000000002990---------SJ 20260201                 000032395800444                          JOSEFINA ALMEIDA SANTOS                        002
B0367649066440801000000000002990---------SJ 20260201                 000034770000425                          ESMERALDO BARRETO DA SILVA                     002
B0367708176440801000000000002990---------SJ 20260201                 000034828400445                          JOSE ANESIO DE LIMA                            002
B0367785326440801000000000002990---------SJ 20260201                 000034904500421                          ELIETE HOLANDA CAVALCANTI DE LIMA              002
B0367907616440801000000000002990---------SJ 20260201                 000035024500458                          JACYRA APARECIDA NOGUEIRA                      002
B0370823116440801000000000002990---------SJ 20260201                 000037757600467                          SEBASTIAO CUSTODIO DA SILVA                    002
B0370825076440801000000000002990---------SJ 20260201                 000037759400440                          SANDRA REGINA DE OLIVEIRA                      002
B0371259156440801000000000002990---------JC 20260201                 000038168900467                          DAMIAO MARQUES DA LUZ                          002
B0373231816440801000000000002990---------SJ 20260201                 000040016400420                          GUIDA ONOFRA DA COSTA                          002
B0373336316440801000000000003990---------SJ 20260201                 000040115500401                          SUELEN BARBOSA DE OLIVEIRA                     002
B0373338286440801000000000003990---------SJ 20260201                 000040117400477                          NAIR MOREIRA DE FREITAS                        002
B0373350656440801000000000002990---------SJ 20260201                 000040129000447                          DJALMA ANDRE JESUINO                           002
B0373530476440801000000000002990---------SJ 20260201                 000040298600480                          HELIO VITOR DE SOUZA                           002
B0373535866440801000000000002990---------SJ 20260201                 000040303400403                          ANA MARIA DOS SANTOS                           002
B0373650536440801000000000003990---------SJ 20260201                 000040412600432                          RITA SILVA VIEIRA                              002
B0376063016440801000000000002990---------SJ 20260201                 000042530300415                          ALDA NEUZA DA SILVA                            002
B0376349176440801000000000002990---------SJ 20260201                 000042804700483                          ADEMIR DE ANDRADE                              002
B0376350516440801000000000002990---------SJ                          000042806100407                                                                         053
B0379033656440801000000000002990---------SJ 20260201                 000045315900464                          WILSON FERREIRA DE OLIVEIRA                    002
B0379258316440801000000000002990---------SJ 20260201                 000045528400450                          CICERO JOSE DOS SANTOS                         002
B0381840956440801000000000002990---------SJ 20260201                 000047954700483                          ISABEL DE CARVALHO                             002
B0381933706440801000000000002990---------SJ 20260201                 000048043900494                          TAMIRES DE OLIVEIRA CARVALHO                   002
B0384991266440801000000000003990---------SJ 20260201                 000050926100440                          CLAUDIO CORREA LIRIO                           002
B0385335886440801000000000002990---------JC 20260201                 000051255800420                          APARECIDA PINHEIRO DE MELO                     002
B0387787516440801000000000002990---------SJ                          000053553600481                                                                         053
B0388809716440801000000000002990---------SJ 20260201                 000054224700404                          EUNICE LOPES GONZAGA                           002
B0394848666440801000000000002990---------SJ 20260201                 000055659900415                          JOSE DOS REIS FRANCISCO SILVA                  002
B0394856766440801000000000002990---------SJ 20260201                 000055660800461                          FLAVIA LADISLAU SANCHO                         002
B0440448106440801000000000002990---------SJ                          000067445900440                                                                         053
B0714492816440801000000000002990---------SJ 20260201                 000068661300409                          DIRCEU ANTONIO DE OLIVEIRA                     002
B0715812516440801000000000002990---------SJ                          000068959600442                                                                         053
B0718489086440801000000000002990---------SJ 20260201                 000069576900412                          TEREZA IZABEL DA SILVA                         002
B0735005006440801000000000002990---------SJ 20260201                 000072698800462                          NATANAEL CICERO DA SILVA                       002
B0736138516440801000000000002990---------SJ                          000072974000459                                                                         053
B0738688336440801000000000002990---------SJ                          000073473800439                                                                         053
B0739389476440801000000000002990---------SJ 20260201                 000073630500453                          MARIVALDA NOVAIS SILVA                         002
B0739435176440801000000000002990---------SJ 20260201                 000073637800405                          ROSANA APARECIDA TEIXEIRA DA CUNHA             002
B0740595136440801000000000002990---------SJ                          000073842600400                                                                         053
B0742099146440801000000000002990---------SJ 20260201                 000074119100410                          JOSIELI FONSECA GARI                           002
B0744183946440801000000000002990---------SJ                          000074611000492                                                                         053
B0748402316440801000000000002990---------SJ                          000075423300422                                                                         053
B0769147636440801000000000002990---------SJ 20260201                 000079593200422                          NAIR DA ROCHA                                  002
B0771639316440801000000000004990---------SJ                          000080119900477                                                                         053
B0791941846440801000000000002990---------SJ 20260201                 000084158900404                          DONIZETTI TAVARES DE SOUZA                     002
B0823733886440801000000000002990---------SJ                          000090121700457                                                                         053
B0836714986440801000000000002990---------JC 20260201                 000092699600458                          ROSALINA DE JESUS DA SILVA                     002
B0844303546440801000000000002990---------SJ                          000094551900424                                                                         053
B0858563046440801000000000002990---------SJ 20260201                 000097573800401                          LUCIETE GOMES DE SOUZA                         002
B0878353476440801000000000002990---------JC                          000101694300440                                                                         053
B0879668326440801000000000002990---------JC 20260201                 000101990900459                          RHEMERSON JAIME DE OLIVEIRA GALVAO             002
B0891208416440801000000000003990---------SJ 20260201                 000103019000421                          LUDMILA MENDES DA SILVA                        002
B0892700116440801000000000002990---------JC 20260201                 000103830200429                          IRENE DE BARROS                                002
B0892712386440801000000000002990---------JC 20260201                 000103840800440                          MARIA DO CARMO CARDOSO DE LIRA                 002
B0892714596440801000000000002990---------JC 20260201                 000103843000461                          EDINEIA MARIA DE OLIVEIRA                      002
B0892724216440801000000000002990---------JC 20260201                 000103852200439                          CAROLAINE AMANDA MOURA DOS SANTOS              002
B0892765916440801000000000002990---------JC 20260201                 000103877600456                          EUNICE LAUDILEI DA SILVA                       002
B0892902756440801000000000002990---------JC 20260201                 000103971700415                          IVANI DA PENHA REBULI DA LUZ                   002
B0892980986440801000000000002990---------JC                          000104026400477                                                                         053
B0894906736440801000000000003990---------SJ                          000105105800426                                                                         053
B0906115786440801000000000002990---------SJ                          000111363200401                                                                         053
B0913704696440801000000000002990---------JC                          000115675000470                                                                         053
B0913795636440801000000000002990---------JC 20260201                 000115730600485                          NAIR DE MOURA                                  002
B0913833586440801000000000002990---------JC 20260201                 000115755600430                          BRUNA PEREIRA                                  002
B0926639236440801000000000004990---------SJ 20260201                 000123097500495                          PATRICIA APARECIDA DA SILVA                    002
B0929589156440801000000000002990---------SJ 20260201                 000124770600464                          JORGE CAMARGO SERRA                            002
B0930481226440801000000000002990---------SJ 20260201                 000125237000430                          ROSANGELA MARIA MONTEIRO DOS SANTOS            002
B0936135476440801000000000002990---------SJ 20260201                 000129858300435                          JOSE LEVI DA SILVA                             002
B0936530696440801000000000002990---------SJ 20260201                 000130248400424                          EVANILCE DA SILVA PINHO CARTER                 002
B0937559536440801000000000003990---------SJ                          000131268900489                                                                         053
B0938174366440801000000000002990---------SJ 20260201                 000131880100424                          CLAUDINEA APARECIDA DE ALMEIDA                 002
B0939936416440801000000000002990---------SJ 20260201                 000133629400480                          MARIA HELENA DOS SANTOS                        002
B0942269716440801000000000002990---------SJ 20260201                 000135953800471                          RICARDO PEREIRA BARBOSA                        002
B0944788566440801000000000002990---------SJ 20260201                 000138469600402                          JOAO AMELIO DA SILVA                           002
B0944894916440801000000000002990---------SJ 20260201                 000138576000444                          TERESINHA MARTINS FARIA                        002
B0944948866440801000000000002990---------SJ 20260201                 000138629900402                          IVANETE PEREIRA SANTOS                         002
B1500296786440801000000000002990---------SJ 20260201                 000141612600456                          RAIANE DE FATIMA DA SILVA AUGUSTO              002
B1500310046440801000000000003990---------JC 20260201                 000141745200419                          MARLENE COSTA                                  002
B1500712546440801000000000003790---------JC 20260201                 000145770200448                          ESMERALDA MELO                                 002
B1500754946440801000000000004990---------SJ                          000146194200495                                                                         053
B1500774806440801000000000002990---------SJ 20260201                 000146392800406                          ISIDORA DE FARIA                               002
B1500982546440801000000000002990---------SJ 20260201                 000148470200417                          MARGARIDA DE CARVALHO                          002
B1501517836440801000000000002990---------SJ 20260201                 000153823100437                          SONIA MANOEL DOS SANTOS                        002
B1501759916440801000000000002990---------JC 20260201                 000156243900492                          MARIA DE LOURDES BORGES                        002
B1501827136440801000000000002990---------SJ 20260201                 000156916100431                          PRESCILIANA PINTO DA SILVA                     002
B1501855976440801000000000002990---------JC 20260201                 000157204500470                          AMARA FRANCISCA DA SILVA                       002
B1501860026440801000000000002990---------JC                          000157245000498                                                                         053
B1501876376440801000000000002990---------SJ 20260201                 000157408500427                          ROSEMARY PEREIRA FERNANDES                     002
B1502683566440801000000000002990---------JC                          000164480400447                                                                         053
B1502679386440801000000000003990---------SJ 20260201                 000164438600411                          ADRIANA BARBOSA DE OLIVEIRA DA SILVA           002
B1502728936440801000000000002990---------SJ 20260201                 000164934100450                          FRANCIANA MARIA DA SILVA                       002
B1502826066440801000000000002990---------SJ                          000165905400444                                                                         053
B1502988966440801000000000002990---------SJ 20260201                 000167534400430                          MARCIO VALERIO BRAZ                            002
B1502639556440801000000000005380---------SJ 20260201                 000164040300400                          JOVANIA AUXILIADORA COSTA                      002
B1502345106440801000000000002990---------SJ 20260201                 000161095800475                          EDNA APARECIDA DOS SANTOS                      002
B1502258436440801000000000002990---------SJ 20260201                 000160229100425                          MARIA APARECIDA SILVA                          002
B1502171916440801000000000005380---------SJ 20260201                 000159363900466                          VALDIVIA ALVES BRANDAO                         002
B1501922036440801000000000002990---------SJ 20260201                 000157865100407                          MARIA CRISTINA DE MELO                         002
B1501901566440801000000000002990---------SJ                          000157660400445                                                                         053
B1503044976440801000000000002990---------SJ 20260201                 000168094500406                          JOAO BATISTA DE SOUZA                          002
B1503241816440801000000000002990---------SJ                          000169765100404                                                                         053
B1503774046440801000000000004990---------SJ                          000175087200489                                                                         053
B1503901226440801000000000002990---------SJ 20260201                 000176359000491                          OSMARINA GONCALVES                             002
B1503954626440801000000000002990---------SJ 20260201                 000176893000406                          ELIZABETH ALVES DE OLIVEIRA SILVA              002
B1503977976440801000000000002990---------SJ 20260201                 000177126500400                          MARIA LUIZA DA SILVA                           002
B1504061996440801000000000002990---------SJ 20260201                 000177966700490                          JOSE DE PAULA                                  002
B1504118166440801000000000002990---------SJ 20260201                 000178528400498                          BENEDITO RAMOS                                 002
B1504269776440801000000000002990---------SJ                          000180044500490                                                                         053
B1504303706440801000000000002990---------JC                          000180383800460                                                                         053
B1504304996440801000000000002990---------JC 20260201                 000180396700499                          LUZIA APARECIDA RODRIGUES BENTO                002
B1504672426440801000000000002990---------JC 20260201                 000184071000425                          LUCIANE APARECIDA LEMES                        002
B1504673056440801000000000003990---------JC 20260201                 000184077300492                          EVA APARECIDA DA SILVA                         002
B1505021256440801000000000002990---------SJ                          000187559300495                                                                         053
B1505089546440801000000000002990---------JC 20260201                 000188242200416                          CLEBER DE OLIVEIRA HEINZ                       002
B1505089676440801000000000002990---------JC 20260201                 000188243500474                          FRANCISCO ALVES FERREIRA FILHO                 002
B1505090116440801000000000002990---------JC                          000188247900463                                                                         053
B1505090366440801000000000002990---------JC 20260201                 000188250400401                          CARLOS PEREIRA DE SOUZA                        002
B1505090696440801000000000002990---------JC 20260201                 000188253700423                          MARIA DE FATIMA SOUZA                          002
B1505338696440801000000000002990---------JC                          000190733700400                                                                         053
B1505700166440801000000000002990---------JC 20260201                 000194348400486                          MARIA CRISTINA CARDOSO DO NASCIMENTO           002
B1505793226440801000000000002990---------SJ 20260201                 000195279000407                          ADALGISA VILLAS BOAS GALDINO                   002
B1506078836440801000000000003990---------SJ 20260201                 000198135100480                          LAZARO CLARO                                   002
B1506499126440801000000000002990---------JC 20260201                 000202338000462                          ROSELI MOREIRA                                 002
B1506499206440801000000000002990---------JC 20260201                 000202338800496                          MARIA DE FATIMA DE OLIVEIRA                    002
B1506499496440801000000000002990---------JC 20260201                 000202341700409                          MARIA DA GLORIA DOS SANTOS                     002
B1506502206440801000000000002990---------JC 20260201                 000202368800400                          RUTE BATISTA NOGUEIRA                          002
B1506783236440801000000000002990---------SJ 20260201                 000205179100466                          WANDA MARIA DE BARROS OLIVIERI                 002
B1507385576440801000000000002990---------SJ 20260201                 000211202500436                          ELISEU DE SOUZA MOTA                           002
B1507502366440801000000000003990---------SJ 20260201                 000212370400400                          HELENA JESUS DE LIMA FERREIRA                  002
B1507516916440801000000000002990---------SJ 20260201                 000212515900466                          MONICA JACQUELINE RODRIGUES                    002
B1507517486440801000000000002990---------SJ 20260201                 000212521600430                          MARIA RITA LIMA NASCIMENTO                     002
B1507518176440801000000000002990---------SJ 20260201                 000212528500418                          MARIA BENEDITA DE MORAES DA SILVA              002
B1507934396440801000000000002990---------SJ 20260201                 000216690700430                          CARLOS ALBERTO RODRIGUES FERREIRA              002
B1508061056440801000000000002990---------SJ 20260201                 000217957300405                          MARIA CRISTINA DE OLANDA ALVES                 002
B1508062416440801000000000002990---------SJ 20260201                 000217970900419                          SEBASTIANA IZAURA DIAS PEREIRA                 002
B1508489176440801000000000003990---------SJ 20260201                 000222238500440                          ANTONIA FATIMA ALVES                           002
B1509072696440801000000000005380---------SJ 20260201                 000228073100468                          RITA DE CASSIA DA SILVA                        002
B1509072916440801000000000002990---------SJ 20260201                 000228075300402                          CLAUDINEIA INACIA DE AZEVEDO                   002
B1509073146440801000000000002990---------SJ 20260201                 000228077600442                          VANEIDE SOUZA DE JESUS                         002
B1509073746440801000000000002990---------SJ 20260201                 000228083600493                          ARLINDO PEREIRA DA SILVA                       002
B1509074816440801000000000002990---------SJ 20260201                 000228094300477                          LETICIA APARECIDA DA SILVA DE MORAES           002
B1509082606440801000000000002990---------SJ 20260201                 000228172200436                          JOSIELLY RODRIGUES DA SILVA ILHEU              002
B1509087716440801000000000002990---------SJ 20260201                 000228223300407                          SONIA MARIA DOS SANTOS                         002
B1509087816440801000000000002990---------SJ 20260201                 000228224300499                          LUIS CARLOS DE LIMA                            002
B1509089006440801000000000002990---------SJ 20260201                 000228236200435                          ANA MARIA MACHADO                              002
B1509092146440801000000000002990---------SJ                          000228267600406                                                                         053
B1509096026440801000000000002990---------SJ 20260201                 000228306400466                          ANA PAULA PARDO DA SILVA                       002
B1509097576440801000000000002990---------SJ 20260201                 000228321900450                          MARIA NEIDE TEIXEIRA                           002
B1509098496440801000000000002990---------SJ 20260201                 000228331100408                          MARIA SELMA DOS SANTOS                         002
B1509098626440801000000000002990---------SJ 20260201                 000228332400453                          MARILZA ROCHA PEREIRA ALECRIM                  002
B1509111496440801000000000002990---------SJ 20260201                 000228461100484                          AGNALDO PAES DOS SANTOS                        002
B1509342716440801000000000002990---------SJ                          000230773300403                                                                         053
B1509437086440801000000000002990---------SJ 20260201                 000231717000473                          ARISTEU DE JESUS SANTOS                        002
B1509645686440801000000000002990---------SJ 20260201                 000233803000444                          OSWALDO DE SOUZA PAMPLONA                      002
B1511072606440801000000000004990---------SJ 20260201                 000248072200466                          IVANILDA FERREIRA DA SILVA                     002
B1512015126440801000000000002990---------SJ                          000257496900412                                                                         053
B1512433716440801000000000002990---------SJ 20260201                 000261682700487                          NUBIA LEANDRA DA SILVA                         002
B1512433856440801000000000002990---------SJ 20260201                 000261684100400                          GIANNE CRISTINA CESAR LOPES                    002
B1512931526440801000000000002990---------JC 20260201                 000266660600456                          ANALIA DO CARMO SILVA                          002
B1513183636440801000000000002990---------SJ                          000269181700410                                                                         053
B1513226336440801000000000002990---------SJ 20260201                 000269608700420                          JOADSON DAS DORES DE JESUS                     002
B1513929706440801000000000002990---------SJ 20260201                 000276642400430                          DILMA LEMES DE ALMEIDA                         002
B0331212316440901000000000003990---------SJ 20260201                 000003176400408                          LEVINO NUNES                                   002
B0331258306440901000000000002990---------SJ                          000003221500498                                                                         053
B0331293556440901000000000003990---------SJ 20260201                 000003255700410                          ADELAIDE NOGUEIRA DOS SANTOS                   002
B0331543766440901000000000003990---------SJ 20260201                 000003495000407                          JACYR DOS SANTOS LEITE                         002
B0331547676440901000000000003990---------SJ 20260201                 000003498900469                          OSMAR RIBEIRO VIANA                            002
B0331582406440901000000000003990---------SJ 20260201                 000003532800408                          ISABEL CRISTINA DE ANDRADE PAULO               002
B0334002296440901000000000003990---------SJ 20260201                 000005805400472                          PEDRO FUMIO MIYABARA                           002
B0334002376440901000000000003990---------SJ 20260201                 000005805500468                          DIMAS SALGADO                                  002
B0334049336440901000000000003990---------SJ 20260201                 000005849800454                          JOAO BATISTA PEREIRA DOS SANTOS                002
B0334062436440901000000000003990---------SJ 20260201                 000005862000407                          APARECIDA MARTINS DOS SANTOS                   002
B0334069796440901000000000003990---------SJ 20260201                 000005869000477                          JACINTA FRANCISCA CREMONESE                    002
B0334094046440901000000000003990---------SJ 20260201                 000005891700475                          ENEDIR ALVES PEREIRA                           002
B0334096686440901000000000003990---------SJ 20260201                 000005894100478                          LUZINEA TEREZINHA DA SILVA SANTOS              002
B0334322796440901000000000003990---------SJ 20260201                 000006109900466                          CLEONICE RIBEIRO                               002
B0334331196440901000000000003990---------SJ 20260201                 000006118300400                          APARECIDA DE FÁTIMA NOGUEIRA                   002
B0337106356440901000000000003990---------SJ 20260201                 000008692600408                          MARIA DE FATIMA OLIVEIRA SILVA                 002
B0342725856440901000000000003990---------SJ                          000011363200478                                                                         053
B0345218106440901000000000003990---------SJ 20260201                 000013718300471                          OTACILIO SIQUEIRA SANCHES                      002
B0345251146440901000000000003990---------SJ 20260201                 000013750900452                          JOAQUIM DONIZETI SILVA                         002
B0347962586440901000000000003990---------SJ                          000016258400402                                                                         053
B0348001076440901000000000003990---------SJ 20260201                 000016294500450                          IVENILSON DA SILVA                             002
B0350909106440901000000000003990---------SJ 20260201                 000019044000476                          ADRIANA ANICETO CARDOSO                        002
B0350932346440901000000000003990---------SJ                          000019065900413                                                                         053
B0350977106440901000000000003990---------SJ 20260201                 000019109200438                          FELICIANA AMANCIA BOMFIM                       002
B0351053136440901000000000003990---------SJ                          000019183900460                                                                         053
B0351081696440901000000000003990---------SJ 20260201                 000019212200400                          IRACEMA APARECIDA RAMOS                        002
B0351081936440901000000000003990---------SJ 20260201                 000019212500474                          ELISABETH SALVADOR                             002
B0351085256440901000000000003990---------SJ 20260201                 000019215700403                          ROSA TEODORO BALIEIRO                          002
B0351100236440901000000000003990---------SJ 20260201                 000019230000402                          JOSEFA MARIA AMARO IZIDORO                     002
B0351101396440901000000000003990---------SJ 20260201                 000019231100477                          JOAO COSTA SILVA                               002
B0351105976440901000000000003990---------SJ 20260201                 000019235700447                          SUELI APARECIDA BENTO                          002
B0351225016440901000000000003990---------CG 20260201                 000019349900498                          ANESIA FLORIANO ROCHA DE OLIVEIRA              002
B0353659436440901000000000003990---------SJ 20260201                 000021612600428                          SEBASTIAO MOREIRA                              002
B0353680986440901000000000003990---------SJ 20260201                 000021633100401                          BENEDITO ALVES DA SILVA                        002
B0353743906440901000000000003990---------SJ 20260201                 000021694700462                          IVANETE ELISA PINTO                            002
B0353845576440901000000000003990---------SJ                          000021793700445                                                                         053
B0353847276440901000000000003990---------SJ 20260201                 000021795400432                          MARIA DE LOURDES OLIVEIRA                      002
B0353863396440901000000000003990---------SJ 20260201                 000021811500480                          MARIA LUIZA RIBEIRO FERRETI                    002
B0353911626440901000000000003990---------SJ                          000021857700444                                                                         053
B0353970216440901000000000003990---------SJ 20260201                 000021912400430                          SANDRO ALBERTO CASTILHO                        002
B0353982486440901000000000003990---------SJ 20260201                 000021924200491                          MARIA DE LOURDES LINO DOS SANTOS               002
B0354450766440901000000000003990---------JC 20260201                 000022373900482                          ELZA MARIA RIBEIRO                             002
B0354462266440901000000000003990---------JC 20260201                 000022385300471                          NEUSA CAMARGO DE MIRANDA                       002
B0354462346440901000000000003990---------JC 20260201                 000022385400467                          MARIA MADALENA NUNES DA SILVA                  002
B0354462856440901000000000003990---------JC 20260201                 000022385900414                          ROSELENA PIO                                   002
B0354463666440901000000000003990---------JC 20260201                 000022386700415                          INES APARECIDA DE LACERDA                      002
B0354482886440901000000000003990---------JC 20260201                 000022405900406                          JARBAS SILVIO DAS CHAGAS                       002
B0354484746440901000000000003990---------JC 20260201                 000022407800471                          EDSON PIRES DE MORAES                          002
B0354488816440901000000000003990---------JC 20260201                 000022411900444                          BENEDITO PEREIRA                               002
B0354496086440901000000000003990---------JC 20260201                 000022419100475                          MARIA APARECIDA DA SILVA                       002
B0354500536440901000000000003990---------JC 20260201                 000022423600400                          MARIA DAS GRACAS DAMASIO DE JESUS              002
B0354531506440901000000000003990---------JC 20260201                 000022454500410                          MARGARIDA MARIA DE CARVALHO BRAZ               002
B0359490076440901000000000003990---------SJ                          000027130600413                                                                         053
B0359495976440901000000000003990---------SJ                          000027136300438                                                                         053
B0359579486440901000000000003990---------SJ 20260201                 000027215700436                          SEBASTIAO DE OLIVEIRA                          002
B0359627806440901000000000003990---------SJ 20260201                 000027259700456                          BELMIRO LEONARDO DOS SANTOS                    002
B0362052146440901000000000003990---------SJ 20260201                 000029520000462                          ERLAND JOSE LEMES                              002
B0362056056440901000000000003990---------SJ 20260201                 000029523800431                          ORLANDO GOMES                                  002
B0362074036440901000000000003990---------SJ 20260201                 000029541500448                          NAIR TELES DE PAULA                            002
B0362318516440901000000000003990---------SJ 20260201                 000029775500419                          KATIA FRANCA FIALHO                            002
B0362414316440901000000000003990---------SJ                          000029868700431                                                                         053
B0362415636440901000000000003990---------SJ 20260201                 000029870000417                          VICENTE ALVES MOREIRA                          002
B0365059946440901000000000003990---------SJ 20260201                 000032331000454                          TEREZINHA PEREIRA SERVOLO                      002
B0365118716440901000000000003990---------SJ 20260201                 000032388800411                          APARECIDA RODRIGUES                            002
B0367775526440901000000000003990---------SJ 20260201                 000034895100430                          ROSALINA PEREIRA RODRIGUES                     002
B0367888306440901000000000003990---------SJ 20260201                 000035005700474                          ANTONIO GOMES                                  002
B0370838216440901000000000003990---------SJ 20260201                 000037772000451                          ROSANGELA APARECIDA FARIA VIEIRA DA SILV       002
B0371228016440901000000000003990---------JC 20260201                 000038138600476                          TEREZINHA DE BARROS MARTINS                    002
B0371240306440901000000000003990---------JC 20260201                 000038150900434                          EURIDES MORAIS PEIXOTO                         002
B0373336746440901000000000002990---------SJ                          000040115900460                                                                         053
B0373344096440901000000000003990---------SJ                          000040122700402                                                                         053
B0373557676440901000000000003990---------SJ 20260201                 000040323700413                          VANDERLEIA MIRANDA RIBEIRO                     002
B0373612876440901000000000003990---------SJ 20260201                 000040376300468                          TERESINHA NOGUEIRA                             002
B0373645376440901000000000003990---------SJ 20260201                 000040407500488                          MARIA LUCIA DE OLIVEIRA                        002
B0376253906440901000000000003990---------SJ 20260201                 000042714300425                          GLORIA SILVA FERREIRA                          002
B0376255196440901000000000003990---------SJ                          000042715500498                                                                         053
B0376533006440901000000000003990---------SJ 20260201                 000042977000462                          NADIR BATISTA DOS REIS                         002
B0378987016440901000000000003990---------SJ 20260201                 000045273500403                          JOSE RICARDO CONSIGLIO                         002
B0381863316440901000000000003990---------SJ 20260201                 000047976400417                          MARIA APPARECIDA MARIANO                       002
B0381864716440901000000000002990---------SJ 20260201                 000047977800460                          MARIA NILZA ALVES                              002
B0381936636440901000000000003990---------SJ                          000048046600463                                                                         053
B0381942446440901000000000002990---------SJ                          000048052200442                                                                         053
B0381944226440901000000000003990---------SJ                          000048054000425                                                                         053
B0387771266440901000000000003990---------SJ 20260201                 000053537900439                          JOAO DA CUNHA SANTOS                           002
B0389182346440901000000000003990---------SJ 20260201                 000054395500474                          MARIA ZELEIDE DOS SANTOS                       002
B0397186716440901000000000003990---------TA                          000056001100440                                                                         053
B0439366286440901000000000003990---------SJ 20260201                 000067098000489                          ROSEMEIRE APARECIDA NOGUEIRA                   002
B0440071756440901000000000003990---------SJ                          000067319600411                                                                         053
B0626292716440901000000000003990---------SJ 20260201                 000067884500447                          IVAN DOS SANTOS                                002
B0717736496440901000000000003990---------SJ 20260201                 000069445800466                          MARIA INEZ MOREIRA SILVINO COSTA               002
B0717975136440901000000000003990---------SJ 20260201                 000069485300404                          MARIANA OLIMPIA VIANNA                         002
B0721171686440901000000000003990---------SJ 20260201                 000070187500401                          MADALENA APARECIDA DOS SANTOS                  002
B0727044116440901000000000003990---------SJ 20260201                 000071250800406                          Dimas Roberto Munhoz                           002
B0727055316440901000000000003990---------SJ 20260201                 000071254500467                          DEODATO HONORIO DOS SANTOS                     002
B0727110276440901000000000003990---------SJ 20260201                 000071267500480                          MARIA DA GLORIA CANDIDA BARBOSA                002
B0727139766440901000000000003990---------SJ 20260201                 000071279200446                          JOAO ALVES LOPES                               002
B0727789896440901000000000002990---------SJ 20260201                 000071418500420                          JOANA MARIA COSTA                              002
B0732320686440901000000000003990---------SJ 20260201                 000072185800426                          MARIA DOS ANJOS RODRIGUES PEGO                 002
B0732543806440901000000000003990---------SJ 20260201                 000072250600486                          VANI RODRIGUES                                 002
B0732611066440901000000000003990---------SJ 20260201                 000072262100460                          ARLINDO VIEIRA                                 002
B0734862726440901000000000003790---------SJ 20260201                 000072658100431                          VANDA DA SILVA PERES                           002
B0738941766440901000000000003990---------SJ 20260201                 000073523900428                          MARLENE GUIMARAES DA SILVA                     002
B0740651906440901000000000002990---------SJ 20260201                 000073854800422                          EDNILSON CARLOS DA SILVA MARTINS               002
B0740782416440901000000000003990---------SJ 20260201                 000073878100468                          MARIA DE LOURDES DOS SANTOS                    002
B0741460686440901000000000003990---------SJ 20260201                 000074001600480                          MARIA DE LOURDES DO ALTISSIMO                  002
B0742093456440901000000000002990---------SJ 20260201                 000074115300473                          NEUSA ROSA SAGIORO                             002
B0742139206440901000000000003990---------SJ 20260201                 000074136400497                          MARIA PEREIRA MESQUITA                         002
B0742586646440901000000000003990---------SJ 20260201                 000074291400481                          MARIA APARECIDA ZORZENONI                      002
B0742926686440901000000000003990---------SJ 20260201                 000074371600480                          ALTAMIRO RODRIGUES                             002
B0746600216440901000000000003990---------SJ 20260201                 000075034500405                          PEDRO RIBEIRO DA SILVA                         002
B0750328056440901000000000003990---------SJ 20260201                 000075813900455                          TEREZINHA APARECIDA DOS SANTOS                 002
B0750329536440901000000000003990---------SJ 20260201                 000075814700456                          MARIA JOSE DE ANDRADE                          002
B0750329966440901000000000003990---------SJ 20260201                 000075814900437                          CARLOS EDUARDO TIBURCIO                        002
B0753489006440901000000000003990---------SJ                          000076366900402                                                                         053
B0755055766440901000000000003990---------SJ 20260201                 000076601300405                          MARCILIO FERREIRA DOS SANTOS                   002
B0755410416440901000000000003990---------SJ 20260201                 000076664100409                          MARIA APARECIDA RODRIGUES                      002
B0755698506440901000000000003990---------JC 20260201                 000076732500444                          MARIA HELENA DE SOUZA SILVA                    002
B0758430216440901000000000003990---------SJ 20260201                 000077264800437                          ELPIDIO JORGE ESTEVAM                          002
B0758991326440901000000000003990---------SJ 20260201                 000077390400427                          MARIA BENEDICTA DA ROSA                        002
B0762451366440901000000000003990---------SJ 20260201                 000078132700450                          MARIA APARECIDA DE PAULA                       002
B0763654096440901000000000003990---------SJ 20260201                 000078399900471                          JOSE EDUARDO PEREIRA DOS SANTOS                002
B0773976316440901000000000003990---------SJ 20260201                 000080660100490                          CLARISSE MARIA DE OLIVEIRA DA SILVA            002
B0776745966440901000000000003990---------SJ                          000081185700427                                                                         053
B0778844006440901000000000003990---------JC                          000081592400431                                                                         053
B0780500066440901000000000003990---------SJ                          000081969800400                                                                         053
B0786293066440901000000000002990---------SJ 20260201                 000083047700445                          JOSE CASSIANO DA SILVA                         002
B0791499106440901000000000003990---------JC 20260201                 000084074900456                          MARIA APARECIDA MARQUES DE OLIVEIRA            002
B0792724366440901000000000003990---------PI 20260201                 000084308700489                          ELVIRA HONORATO                                002
B0797558366440901000000000003990---------SJ 20260201                 000085309300450                          ALICE BOTELHO VERTERA                          002
B0803736916440901000000000003990---------SJ 20260201                 000086438100427                          BENEDITO RAIMUNDO GABRIEL                      002
B0811067426440901000000000003990---------SJ                          000087782900475                                                                         053
B0812490986440901000000000003990---------JC                          000088087200455                                                                         053
B0814642076440901000000000003990---------SJ 20260201                 000088462200458                          MARIA DO CARMO MARTINS                         002
B0819936336440901000000000003990---------JC 20260201                 000089382100408                          JUDITH DE FATIMA VEIGA PIRES                   002
B0823647116440901000000000003990---------SJ 20260201                 000090099900435                          IVAM JOSE DE MENDONCA                          002
B0824419876440901000000000003990---------SJ 20260201                 000090262900477                          MARIA DA SILVA OLIVEIRA                        002
B0829151216440901000000000003990---------SJ                          000091174700414                                                                         053
B0830289356440901000000000003990---------SJ 20260201                 000091407000408                          BENEDITO GERMANO FERREIRA                      002
B0832682016440901000000000003990---------SJ 20260201                 000091938300406                          SEBASTIAO LISBOA PINTO                         002
B0834530676440901000000000003990---------TA 20260201                 000092239200401                          ELZA ALVES                                     002
B0843363746440901000000000003990---------JC 20260201                 000094307800430                          JOSEFA LINDINALVA DE SOUZA SILVA               002
B0848906316440901000000000003990---------JC 20260201                 000095512700493                          MARIA RODRIGUES DOS SANTOS                     002
B0854327506440901000000000003990---------SJ 20260201                 000096613300429                          LUZIA THIMOTEO DA SILVA                        002
B0854915946440901000000000003990---------SJ 20260201                 000096789500472                          OLIDIO DE NOVAIS NETO                          002
B0867170906440901000000000003990---------SJ 20260201                 000099456000424                          MARIA APARECIDA RODRIGUES BRISIDA              002
B0869924906440901000000000003990---------SJ 20260201                 000100117800493                          EDUARDO ANTONIO DA SILVA                       002
B0879080856440901000000000003990---------SJ 20260201                 000101851600407                          MARIA PEREIRA VIEIRA BRAGA                     002
B0880899596440901000000000003990---------SJ                          000102288800459                                                                         053
B0891259416440901000000000003990---------SJ 20260201                 000103048600407                          JOSE CLAUDINEI VICENTE                         002
B0892723666440901000000000003990---------JC                          000103851600419                                                                         053
B0894797346440901000000000003990---------JC 20260201                 000105049900477                          BRUNA SILVA PAIVA                              002
B0895711936440901000000000003990---------SJ 20260201                 000105535500422                          LUANA FERREIRA DO AMARAL                       002
B0897099266440901000000000003990---------JC 20260201                 000106353800403                          AMADEU JOSE DE LIMA                            002
B0897869716440901000000000003990---------JC 20260201                 000106749700499                          DIRCE RODRIGUES                                002
B0897883036440901000000000003990---------SJ 20260201                 000106753400402                          MARIA DE FATIMA OLIVEIRA NASCIMENTO            002
B0898745876440901000000000003990---------SJ 20260201                 000107209200487                          MARIA DAS GRACAS SANTOS DE OLIVEIRA            002
B0899465966440901000000000003990---------JC 20260201                 000107601000402                          LEONOR SIQUEIRA DE MORAES                      002
B0900003076440901000000000003990---------JC 20260201                 000107888700415                          MARGARIDA MARIA RODRIGUES SILVA                002
B0902156056440901000000000003990---------SJ                          000109134700497                                                                         053
B0902255206440901000000000003990---------SJ 20260201                 000109189900448                          MARA REJANE MARQUES DE MELO                    002
B0903329116440901000000000003990---------JC                          000109787800476                                                                         053
B0903339856440901000000000003990---------JC 20260201                 000109796200410                          MARIA ORLANDA ROMANO FERREIRA                  002
B0903544436440901000000000003990---------SJ 20260201                 000109931500477                          MIGUEL LUIZ DA SILVA                           002
B0904480146440901000000000003990---------JC 20260201                 000110434000404                          MARCIA REGINA AZEVEDO THEODORO                 002
B0904613046440901000000000004990---------JC 20260201                 000110491100480                          MARIA DE LOURDES CAMARGO                       002
B0905753266440901000000000003990---------SJ 20260201                 000111144300403                          MARIA RODRIGUES DOS SANTOS                     002
B0907133466440901000000000004990---------SJ                          000111911900405                                                                         053
B0907298386440901000000000004990---------SJ                          000111989800479                                                                         053
B0908324186440901000000000003990---------JC                          000112535400411                                                                         053
B0908345266440901000000000003990---------SJ 20260201                 000112544400408                          LETICIA MARIA ALVES CORREA                     002
B0908487646440901000000000003990---------SJ 20260201                 000112636200487                          ANTONIO PEDRO DO NASCIMENTO                    002
B0913665346440901000000000003990---------JC 20260201                 000115663000438                          MARIA APARECIDA TEODORO                        002
B0913838206440901000000000003990---------JC                          000115758300400                                                                         053
B0913839276440901000000000003990---------JC 20260201                 000115759300491                          NILCEIA MOREIRA DE CARVALHO                    002
B0914092336440901000000000004990---------SJ                          000115934700427                                                                         053
B0914386246440901000000000003990---------JC 20260201                 000116100800415                          PEDRO CURSINO DE SOUZA                         002
B0917788246440901000000000003990---------SJ 20260201                 000118123000495                          MARIA TERESA GODOI                             002
B0919976406440901000000000003990---------SJ 20260201                 000119298700465                          EDICLEA MARINHO DOS SANTOS                     002
B0920106876440901000000000003990---------JC 20260201                 000119360000412                          BERENICE DO PRADO VIANA                        002
B0922264346440901000000000003990---------JC 20260201                 000120612100453                          FERNANDES BANA                                 002
B0925232186440901000000000003990---------JC 20260201                 000122280200446                          MARIA APARECIDA RIBEIRO                        002
B0928643846440901000000000003990---------SJ 20260201                 000124170800468                          MARIA AUXILIADORA SANTOS MENEZES               002
B0930161316440901000000000003990---------SJ 20260201                 000125080300475                          RONALDO SANTOS MORAES                          002
B0930988986440901000000000003990---------JC 20260201                 000125538200496                          KELLY REGINA DA SILVA                          002
B0934619846440901000000000003990---------SJ 20260201                 000128359600410                          EUDINANDES FERREIRA XAVIER                     002
B0936316266440901000000000003990---------SJ 20260201                 000130035900439                          LEIA DE LIMA MORAES SANTOS                     002
B0937457116440901000000000003990---------SJ 20260201                 000131167300490                          DEOLINDA DUCCINI CUNHA                         002
B0938135716440901000000000003990---------SJ 20260201                 000131841600470                          CLODOALDO DE JESUS SILVA                       002
B0938157436440901000000000003990---------SJ 20260201                 000131863200419                          JOSE HUMBERTO FERNANDES                        002
B0938386896440901000000000003990---------SJ 20260201                 000132090900470                          MARCIA FERREIRA DE OLIVEIRA                    002
B0938449056440901000000000003990---------JC 20260201                 000132152600430                          SIRLENE FATIMA DE MOURA SANTOS                 002
B0938466226440901000000000003990---------SJ 20260201                 000132169700476                          GISLENE EPIFANIO                               002
B0938935156440901000000000003990---------SJ 20260201                 000132635400470                          MARIA CAVALCANTE LEITE                         002
B0940390976440901000000000003990---------JC 20260201                 000134082100444                          ANIELE STEFANI DA SILVA                        002
B0943471236440901000000000003990---------SJ                          000137153000443                                                                         053
B0944353596440901000000000003990---------JC 20260201                 000138034800401                          ELSON DA COSTA DUARTE                          002
B0944355536440901000000000002990---------JC 20260201                 000138036800462                          MAURICIO NATALI LEITE                          002
B0944891496440901000000000003990---------SJ 20260201                 000138572500474                          ELIANA GOMES DOS SANTOS                        002
B0944911436440901000000000003990---------SJ 20260201                 000138592500410                          JESSICA JACQUELINE PEREIRA                     002
B1500172336440901000000000003990---------JC 20260201                 000140368100406                          CLARICE EDVIRGENS CERESCA PAULINO              002
B1500982486440901000000000004990---------SJ 20260201                 000148469600447                          ANTONIA VANDERLANDIA PEIXOTO DE QUEIROZ        002
B1501133536440901000000000002990---------SJ 20260201                 000149980100473                          DORALICE FERREIRA DE MELO                      002
B1501222926440901000000000003990---------SJ 20260201                 000150874000421                          MARIA APARECIDA BATISTA DE BARROS              002
B1509082666440901000000000003990---------SJ 20260201                 000228172800489                          JILDETE DE JESUS PEREIRA                       002
B1501369236440901000000000003990---------SJ 20260201                 000152337100469                          KATIA SILENE ALVES                             002
B1501406706440901000000000003990---------SJ 20260201                 000152711800418                          BIANCA STEPHANE DE LIMA                        002
B1501659996440901000000000003990---------JC 20260201                 000155244700432                          MARLI ALEXANDRE DA SILVA                       002
B1501767596440901000000000003990---------SJ 20260201                 000156320700484                          FERNANDO DOS ANJOS MACIEL                      002
B1501855546440901000000000004990---------JC 20260201                 000157200200477                          MARIA LUCIA ARAUJO SILVA                       002
B1501859456440901000000000002990---------JC 20260201                 000157239300413                          MARIA FERREIRA DE MOURA                        002
B1501958526440901000000000003990---------SJ 20260201                 000158230000461                          ROSANGELA TOMAZ DE CARVALHO                    002
B1502257966440901000000000003990---------SJ 20260201                 000160224400492                          JOSE SEVERINO DOS SANTOS                       002
B1502344766440901000000000003990---------SJ                          000161092400468                                                                         053
B1502568726440901000000000003990---------SJ 20260201                 000163332000462                          EMIDIO VITO FERREIRA                           002
B1502623116440901000000000003990---------SJ 20260201                 000163875900432                          MARIA DA PENHA MARQUES DA SILVA                002
B1502773556440901000000000003990---------SJ 20260201                 000165380300448                          GILBERTO CHAVES RODRIGUES                      002
B1503277356440901000000000003990---------SJ                          000170120500433                                                                         053
B1503297196440901000000000003990---------SJ 20260201                 000170318900400                          SANDRA CRISTINA RIBEIRO                        002
B1503957836440901000000000003990---------SJ 20260201                 000176925100412                          ROSEMIRO MACHADO                               002
B1504062406440901000000000007380---------SJ 20260201                 000177970800463                          RAISSA CAROLINA OLIVEIRA DE SOUZA              002
B1504304416440901000000000003990---------JC 20260201                 000180390900489                          ELISANGELA DA CRUZ                             002
B1504374366440901000000000003990---------SJ 20260201                 000181090400499                          MARIA EUNICE NERY DE SOUZA                     002
B1504551276440901000000000003990---------SJ                          000182859500495                                                                         053
B1504551776440901000000000003990---------SJ 20260201                 000182864500454                          ORLANDO FERNANDES                              002
B1504551936440901000000000003990---------SJ 20260201                 000182866100456                          MARIA OZORIA SILVA                             002
B1504553036440901000000000003990---------SJ 20260201                 000182877100406                          MONICA MARIA XAVIER DOS SANTOS                 002
B0925698716440901000000000003990---------JC 20260201                 000122545300441                          MARIA APARECIDA DE CASTRO GENTIL               002
B1504834326440901000000000003990---------SJ                          000185690000428                                                                         053
B1504834596440901000000000003990---------SJ 20260201                 000185692700420                          MARTA MARIA LOPES                              002
B1504851596440901000000000003990---------SJ                          000185862700434                                                                         053
B1505089456440901000000000003990---------JC                          000188241300420                                                                         053
B1505089486440901000000000003990---------JC 20260201                 000188241600409                          ANTONIO CARLOS DE BRITO                        002
B1505089736440901000000000003990---------JC 20260201                 000188244100494                          ALESSANDRA APARECIDA SILVA                     002
B1505089896440901000000000003990---------JC 20260201                 000188245700419                          JESSICA COSTA DE SOUSA                         002
B1505089936440901000000000003990---------JC                          000188246100458                                                                         053
B1505091126440901000000000003990---------JC 20260201                 000188258000407                          SONIA MARIA SANTOS OLIVEIRA                    002
B1505092466440901000000000003990---------JC                          000188271400430                                                                         053
B1505592276440901000000000003990---------CG 20260201                 000193269500484                          JOSE NELSON BARBOSA                            002
B1505593636440901000000000002990---------SJ 20260201                 000193283100478                          MOACIR DE JESUS                                002
B1505769966440901000000000002990---------SJ                          000195046400480                                                                         173
B1506049216440901000000000003990---------SJ                          000197838900440                                                                         053
B1506501856440901000000000003990---------JC                          000202365300408                                                                         053
B1506767196440901000000000003790---------JC 20260201                 000205018700423                          MARIA APARECIDA NUNES NARCISO                  002
B1507102696440901000000000003990---------SJ 20260201                 000208373700400                          JOSE PINHEIRO DA SILVA                         002
B1507516846440901000000000003990---------SJ                          000212515200428                                                                         053
B1508789266440901000000000002990---------TA 20260201                 000225239400401                          PAOLA DOS REIS MARINHO                         002
B1508889376440901000000000003990---------SJ 20260201                 000226240400491                          LUCIA HELENA DE OLIVEIRA                       002
B1508978866440901000000000003790---------SJ 20260201                 000227134800401                          ELISABETH SHIRLEY DE ALVARENGA                 002
B1509073336440901000000000003990---------SJ 20260201                 000228079500410                          MARIA DO SOCORRO DIAS                          002
B0866344376441001000000000003990---------SJ 20260201                 000099249800409                          SOLANGE DE ANGELO FARIA                        002
B1509095746440901000000000003990---------SJ                          000228303600404                                                                         053
B1509100106440901000000000003990---------SJ 20260201                 000228347200450                          ANTONIA AGRIPINA DA CONCEICAO                  002
B1509177686440901000000000003990---------SJ 20260201                 000229123000427                          ELIANA NUNES BARBOSA                           002
B1509266116440901000000000003990---------SJ 20260201                 000230007300479                          WALMIR JOSE TAVARES                            002
B1510814236440901000000000003990---------SJ 20260201                 000245488500497                          LUIS CARLOS RUFINO                             002
B1511264976440901000000000003990---------SJ 20260201                 000249995900418                          DINALVA GOMES SANTANA                          002
B1511363346440901000000000003990---------SJ                          000250979600481                                                                         053
B1512442416440901000000000003990---------SJ 20260201                 000261769700478                          ADRIANA SILVA DOS SANTOS                       002
B1512442456440901000000000003990---------SJ 20260201                 000261770100467                          ELAINE VITORIA DOS SANTOS                      002
B1512442566440901000000000003990---------SJ 20260201                 000261771200434                          JOSIANE CONCEICAO DA SILVA                     002
B1512736336440901000000000003990---------SJ 20260201                 000264708900403                          SUDARIO DE OLIVEIRA SILVA                      002
B1513174756440901000000000004990---------SJ 20260201                 000269092900496                          DANIELE ALVES DE SOUZA                         002
B1513642746440901000000000002990---------SJ 20260201                 000273772800418                          YASMIN DE SOUSA JERONIMO ANTUNES               002
B1513677846440901000000000003990---------SJ 20260201                 000274123800402                          RODRIGO DA SILVA MARIA                         002
B1513691196440901000000000003990---------SJ 20260201                 000274257300461                          VANESSA CRISTINA DE FREITAS HONORIO DOS        002
B1513837036440901000000000002990---------SJ 20260201                 000275715700440                          WALTER BATISTA SILVA                           002
B0331476636441001000000000003990---------SJ                          000003430700494                                                                         053
B0331542016441001000000000003990---------SJ                          000003493400405                                                                         053
B0334055736441001000000000003990---------SJ                          000005855800408                                                                         053
B0334061716441001000000000003990---------SJ 20260201                 000005861400484                          LUIZA BARRETO DA SILVA                         002
B0334064056441001000000000003990---------SJ 20260201                 000005863600429                          BENEDITA MARIA RITA                            002
B0337079956441001000000000003990---------SJ 20260201                 000008667700485                          MARLENE XAVIER                                 002
B1504553086440901000000000003990---------SJ 20260201                 000182877600463                          MARIA APARECIDA BARBOZA SILVA                  002
B0337545436441001000000000003990---------JC                          000009099600441                                                                         053
B0342698356441001000000000003990---------SJ 20260201                 000011335800460                          MARIA DE LOURDES MOREIRA DA SILVA              002
B0345009366441001000000000003990---------SJ 20260201                 000013514200420                          LEONILDA DE FREITAS BARROS                     002
B0345171716441001000000000003990---------SJ                          000013672800402                                                                         053
B0347684326441001000000000003990---------SJ 20260201                 000015985100493                          IRINALVA FERNANDES LARANJEIRA                  002
B0348502286441001000000000003990---------JC 20260201                 000016772800430                          LAZARA MARIA PIRES                             002
B0351040826441001000000000003990---------SJ                          000019171600452                                                                         053
B0351044146441001000000000003990---------SJ 20260201                 000019174900474                          ANA REGINA DOS SANTOS                          002
B0351108646441001000000000003990---------SJ 20260201                 000019238400416                          MARIA DAS GRACAS ALVES DOS SANTOS              002
B0351563926441001000000000003990---------JC 20260201                 000019672500461                          MARCELO SOARES                                 002
B0353614506441001000000000003990---------SJ                          000021569900473                                                                         053
B0353687486441001000000000003990---------SJ                          000021639300470                                                                         053
B0353715446441001000000000003990---------SJ                          000021666600416                                                                         053
B0353745436441001000000000003990---------SJ 20260201                 000021696200479                          MARIA DE FATIMA SILVA                          002
B0353755406441001000000000003990---------SJ 20260201                 000021705800440                          WANDERLY PEREIRA                               002
B0353856346441001000000000003990---------SJ                          000021804500457                                                                         053
B0353860026441001000000000003990---------SJ 20260201                 000021808200408                          LUCIA HELENA DE PAULA MEDEIROS                 002
B0354442316441001000000000003990---------JC 20260201                 000022365500406                          PRISCILA MARCAL                                002
B0354444286441001000000000003990---------JC 20260201                 000022367400484                          CRISTIANE APARECIDA DE ARAUJO                  002
B0354444446441001000000000003990---------JC 20260201                 000022367600465                          MARISA DE FATIMA LEITE                         002
B0354447896441001000000000003990---------JC 20260201                 000022371000402                          VALDENI ALVES DOS SANTOS SILVA                 002
B0354463076441001000000000003990---------JC 20260201                 000022386100472                          BRUNO DOS SANTOS CORREIA                       002
B0770215846441001000000000003990---------SJ                          000079821800498                                                                         053
B0365072456441001000000000003779---------SJ 20260201                 000032343400458                          JOSE MARIA VIEIRA                              002
B0365164816441001000000000003990---------SJ 20260201                 000032433600425                          ANA ROSA DA SILVA BRAGA                        002
B0367807236441001000000000003990---------SJ 20260201                 000034926000484                          SEVERINA REGINA RAMOS                          002
B0367826116441001000000000003990---------SJ 20260201                 000034944400429                          MARIA DE FATIMA OLIVEIRA                       002
B0362378336441001000000000003990---------SJ 20260201                 000029833300446                          MARIA APARECIDA QUEIROZ DE SOUSA               002
B0362326296441001000000000003990---------SJ 20260201                 000029783000476                          CONCEICAO FLORINDA DE SOUZA                    002
B0356722426441001000000000003990---------SJ 20260201                 000024513000465                          JANETE ROSSELLI ALVES                          002
B0354500456441001000000000003990---------JC                          000022423500414                                                                         053
B0354484406441001000000000003990---------JC 20260201                 000022407500408                          ALEXANDRA SANTOS MONTANINI                     002
B0354474196441001000000000003990---------JC 20260201                 000022397200418                          NAIR MARTINS RIBEIRO LEMES                     002
B0367882796441001000000000003990---------SJ                          000035000200408                                                                         173
B0367887676441001000000000003990---------SJ 20260201                 000035005000436                          MARIA APARECIDA DA PENHA MUNIZ SILVA           002
B0367921616441001000000000003990---------SJ 20260201                 000035038300472                          MARIA JOSE DA SILVA VIRGINIO                   002
B0370392026441001000000000003990---------SJ 20260201                 000037354700459                          MARY ELISABETH DA SILVA                        002
B0370422116441001000000000003990---------SJ                          000037384300401                                                                         053
B0370438976441001000000000003990---------SJ 20260201                 000037400700425                          ROSSANDRA LIMA E SILVA                         002
B0370610206441001000000000003990---------SJ 20260201                 000037557300461                          ADILSON FERREIRA                               002
B0371225766441001000000000003990---------JC 20260201                 000038136400421                          MARIO CESAR RIBEIRO                            002
B0371317116441001000000000003990---------JC 20260201                 000038224000492                          MIRIAM MACEDO BOMFIM DE OLIVEIRA               002
B0373338616441001000000000003990---------SJ 20260201                 000040117800439                          ROSANGELA DE FATIMA LEITE LIMA                 002
B0373389866441001000000000003990---------SJ 20260201                 000040166100480                          NELSON MANOEL DOS SANTOS                       002
B0373493416441001000000000003990---------SJ 20260201                 000040263100401                          ELZA MARIA DO NASCIMENTO CESAR                 002
B0337105716441001000000000003990---------SJ 20260201                 000008692200433                          CLAUDEMIR LOPES XAVIER                         002
B0373626236441001000000000003990---------SJ 20260201                 000040389100403                          GISLAINE REGINA MATOS DOS SANTOS               002
B0381863066441001000000000002990---------SJ 20260201                 000047976100440                          JUDITE DOMINGOS                                002
B0381893646441001000000000003990---------SJ 20260201                 000048006500485                          ARIANE MAIA ESPER                              002
B0387769796441001000000000003990---------SJ 20260201                 000053536400402                          NEILA DE FATIMA GUIMARAES                      002
B0397505156441001000000000003990---------SJ                          000056269000477                                                                         053
B0440082616441001000000000003990---------SJ 20260201                 000067325600462                          LUCIANA MARTINS                                002
B0466301986441001000000000003990---------SJ                          000067728700451                                                                         053
B0715990616441001000000000003990---------SJ 20260201                 000069013700434                          LUCIA HELENA APARECIDA ALVARENGA               002
B0721421466441001000000000003990---------SJ                          000070241200416                                                                         053
B0727166816441001000000000003990---------SJ                          000071287100465                                                                         053
B0732187236441001000000000003990---------SJ 20260201                 000072159500462                          ZILMA SUAVE DE SOUZA                           002
B0732530316441001000000000003990---------SJ 20260201                 000072246900475                          MARIA CONCEICAO MANOEL                         002
B0738123076441001000000000003990---------SJ 20260201                 000073329300447                          REGINALDO PORFIRIO DA SILVA                    002
B0740074916441001000000000003990---------SJ 20260201                 000073735200450                          NATALIA ALVES CARDOSO                          002
B0740599476441001000000000003990---------SJ 20260201                 000073843800472                          MARIA RITA CARDOZO DE SOUZA                    002
B0741462206441001000000000003990---------SJ 20260201                 000074002000419                          JOSE BELIZARIO UMBELINO                        002
B0745790456441001000000000003990---------SJ 20260201                 000074925000481                          ANTONIO RAFAEL SOARES DA CRUZ SANTOS           002
B0746549696441001000000000003990---------SJ 20260201                 000075028200498                          JAILTON DOS SANTOS                             002
B0750324496441001000000000003990---------SJ 20260201                 000075812200435                          FRANCISCO SALES DE SOUSA                       002
B0750417236441001000000000003990---------SJ 20260201                 000075842000479                          SILVANA APARECIDA BASTOS DOS SANTOS            002
B0751392866441001000000000003990---------JC 20260201                 000075992800428                          MARIA DE FATIMA PINTO                          002
B0763509596441001000000000003990---------JC 20260201                 000078369900457                          MARIA DE FATIMA PEREIRA TIMOTEO                002
B1501287596440901000000000003990---------JC 20260201                 000151520700439                          SEVERINO ALVES DA SILVA                        002
B0770222546441001000000000003990---------SJ 20260201                 000079824300486                          IRENE PEREIRA DA COSTA                         002
B0776708766441001000000000003990---------SJ 20260201                 000081176100498                          ANGELICA MARCIA DE SOUZA BARBOSA               002
B0779397276441001000000000003990---------SJ                          000081694700436                                                                         053
B0788986506441001000000000003990---------SJ 20260201                 000083654100402                          JOSE ASPASIO DA SILVA                          002
B0794390986441001000000000003990---------CC 20260201                 000084559700450                          SUELI FORTUNATO DA SILVA                       002
B0795326916441001000000000003990---------SJ 20260201                 000084786300497                          LUIS CARLOS DOS SANTOS                         002
B0804597146441001000000000003990---------SJ 20260201                 000086589400400                          EVANIO TEIXEIRA DANTAS                         002
B0810680006441001000000000003990---------SJ 20260201                 000087693700480                          EDNA ALVES DE SOUZA OLIVEIRA                   002
B0814637826441001000000000003990---------SJ 20260201                 000088460300480                          MARIA DE LOURDES FERREIRA DE OLIVEIRA          002
B0815000766441001000000000003990---------CC 20260201                 000088514900453                          EDINA MARIA DINIZ NAKAHARA                     002
B0821368236441001000000000003990---------SJ                          000089669600472                                                                         053
B0828651086441001000000000003990---------SJ 20260201                 000091056900458                          LUIZA RAIMUNDA BEZERRA                         002
B0830666166441001000000000003990---------JC 20260201                 000091505700447                          ROGERIA DA SILVA                               002
B0830855816441001000000000003990---------SJ 20260201                 000091557600486                          PAULO RICARDO DOS SANTOS                       002
B0833919836441001000000000003990---------SJ 20260201                 000092116200442                          FLAVIO TOZZI                                   002
B0838185616441001000000000003990---------JC                          000092996500400                                                                         053
B0844968786441001000000000003990---------SJ 20260201                 000094665600418                          MARIA APARECIDA PEREIRA                        002
B0846632276441001000000000003990---------SJ 20260201                 000095009300403                          MARIA NAZARE DO PRADO                          002
B0847861836441001000000000003990---------SJ 20260201                 000095283900470                          MARIA GORETE GOMES DA SILVA                    002
B0855595216441001000000000003990---------SJ 20260201                 000096939500430                          ANGELA MARIA DA COSTA NOGUEIRA                 002
B0861488346441001000000000003990---------SJ 20260201                 000098111700416                          KELLEN CRISTINA AMIN                           002
B0863502936441001000000000003990---------SJ 20260201                 000098561400469                          NILCELIA DE FREITAS AGUIAR CLARO               002
B0373574336441001000000000003990---------SJ 20260201                 000040339400406                          VALDECIR CARLOS DOS SANTOS                     002
B0869846756441001000000000003990---------JC 20260201                 000100102500430                          JULIA DE JESUS SOUZA                           002
B0873690106441001000000000003990---------SJ 20260201                 000100652900485                          BENEDITO RODRIGUES DE SOUSA                    002
B0876164086441001000000000003990---------JC 20260201                 000101229200400                          DJANIRA ALEXANDRE DA SILVA                     002
B0876186056441001000000000003990---------SJ 20260201                 000101235200449                          ANA PAULA ARAMITA BARBOSA DA SILVA             002
B0890179276441001000000000003990---------JC 20260201                 000102506900499                          VIVIANE CRISTINA FELICIO PEREIRA               002
B0890702166441001000000000003990---------SJ 20260201                 000102752300409                          VALDILENE TERTO DA SILVA                       002
B0891060916441001000000000003990---------SJ 20260201                 000102944700495                          JOSE PINTO GOMES FILHO                         002
B0892619416441001000000000003990---------JC 20260201                 000103771800481                          MARCIA APARECIDA DE ALMEIDA FERRAZ             002
B0892767366441001000000000003990---------JC 20260201                 000103878500442                          LOURIVAL DOS SANTOS                            002
B0894223336441001000000000003990---------SJ 20260201                 000104748500414                          JOSE LUIZ DA SILVA                             002
B0895063166441001000000000003990---------SJ 20260201                 000105209700422                          MARIA BEATRIZ ANDRADE DE PONTES RIBEIRO        002
B0896506896441001000000000003990---------SJ 20260201                 000106000000480                          ALINE BRUNA DA SILVA                           002
B0897968536441001000000000003990---------SJ 20260201                 000106806400449                          FRANCISCO BENTO DE MATOS                       002
B0899320216441001000000000003990---------JC 20260201                 000107525600451                          MARIA HELENA MARTINS GALINDO                   002
B0900825086441001000000000003990---------JC 20260201                 000108362600420                          MARIA DO CARMO BARBOSA                         002
B0900826646441001000000000003990---------JC                          000108363600402                                                                         053
B0902355256441001000000000003990---------JC 20260201                 000109257200496                          MARIA DA LUZ BERNARDO DE OLIVEIRA              002
B0905312486441001000000000003990---------JC 20260201                 000110883200410                          ROGERIA SIMONE JUSTO SERDA                     002
B0907219856441001000000000003990---------JC 20260201                 000111948700409                          APARECIDA FERNANDES FONSECA                    002
B0907804936441001000000000003990---------SJ                          000112250100499                                                                         053
B0909244366441001000000000003990---------JC 20260201                 000113104600401                          RENATA APARECIDA BARBOSA MARTINS DE OLIV       002
B0911662766441001000000000003990---------SJ 20260201                 000114568900440                          JOSE ALVES DE ASSIS                            002
B0912488686441001000000000003990---------JC 20260201                 000115113700492                          OSWALDO DOS SANTOS NETTO                       002
B0912560386441001000000000003990---------JC                          000115161700490                                                                         053
B0913591556441001000000000003990---------JC 20260201                 000115631700498                          ADRIANA GUIMARAES MARIANO                      002
B0917128076441001000000000003990---------SJ 20260201                 000117745000421                          AGNALDO RIBEIRO DE ASSIS                       002
B0918234556441001000000000003990---------SJ 20260201                 000118363900426                          MARTA BERTOLINO                                002
B0918757576441001000000000003990---------JC                          000118674600406                                                                         053
B0919831776441001000000000003990---------SJ 20260201                 000119207300468                          VANUSA ALVES INACIO                            002
B0926179646441001000000000003990---------TR 20260201                 000122825000412                          MARIA BENEDITA MOREIRA ALVES                   002
B0926795016441001000000000003990---------JC 20260201                 000123179400481                          ANGELA DE LIMA MOTA                            002
B0929130596441001000000000003990---------SJ 20260201                 000124524400410                          DARLAN WILLIAM MATTOS REIS                     002
B0930419266441001000000000003990---------SJ 20260201                 000125197100402                          ALBERTINA RODRIGUES DOS SANTOS                 002
B0933577706441001000000000003990---------SJ 20260201                 000127330300400                          MARIA ROSIMEIRY DE LIMA SILVA                  002
B0933630526441001000000000003990---------SJ 20260201                 000127382500415                          MARIA DO CARMO VIEIRA DOS SANTOS               002
B0934685396441001000000000003990---------SJ 20260201                 000128424600450                          LUIZ PEREIRA                                   002
